{"abi":[{"type":"function","name":"twoSum","inputs":[{"name":"nums","type":"uint256[]","internalType":"uint256[]"},{"name":"target","type":"uint256","internalType":"uint256"}],"outputs":[{"name":"","type":"uint256[2]","internalType":"uint256[2]"}],"stateMutability":"pure"}],"bytecode":{"object":"0x608060405234801561000f575f80fd5b506104f58061001d5f395ff3fe608060405234801561000f575f80fd5b5060043610610029575f3560e01c80636d27dcad1461002d575b5f80fd5b610047600480360381019061004291906102d3565b61005d565b60405161005491906103d2565b60405180910390f35b61006561011d565b5f5b8351811015610115575f60018261007e9190610418565b90505b8451811015610101578385828151811061009e5761009d61044b565b5b60200260200101518684815181106100b9576100b861044b565b5b60200260200101516100cb9190610418565b036100ee5760405180604001604052808381526020018281525092505050610117565b80806100f990610478565b915050610081565b50808061010d90610478565b915050610067565b505b92915050565b6040518060400160405280600290602082028036833780820191505090505090565b5f604051905090565b5f80fd5b5f80fd5b5f80fd5b5f601f19601f8301169050919050565b7f4e487b71000000000000000000000000000000000000000000000000000000005f52604160045260245ffd5b61019a82610154565b810181811067ffffffffffffffff821117156101b9576101b8610164565b5b80604052505050565b5f6101cb61013f565b90506101d78282610191565b919050565b5f67ffffffffffffffff8211156101f6576101f5610164565b5b602082029050602081019050919050565b5f80fd5b5f819050919050565b61021d8161020b565b8114610227575f80fd5b50565b5f8135905061023881610214565b92915050565b5f61025061024b846101dc565b6101c2565b9050808382526020820190506020840283018581111561027357610272610207565b5b835b8181101561029c5780610288888261022a565b845260208401935050602081019050610275565b5050509392505050565b5f82601f8301126102ba576102b9610150565b5b81356102ca84826020860161023e565b91505092915050565b5f80604083850312156102e9576102e8610148565b5b5f83013567ffffffffffffffff8111156103065761030561014c565b5b610312858286016102a6565b92505060206103238582860161022a565b9150509250929050565b5f60029050919050565b5f81905092915050565b5f819050919050565b6103538161020b565b82525050565b5f610364838361034a565b60208301905092915050565b5f602082019050919050565b6103858161032d565b61038f8184610337565b925061039a82610341565b805f5b838110156103ca5781516103b18782610359565b96506103bc83610370565b92505060018101905061039d565b505050505050565b5f6040820190506103e55f83018461037c565b92915050565b7f4e487b71000000000000000000000000000000000000000000000000000000005f52601160045260245ffd5b5f6104228261020b565b915061042d8361020b565b9250828201905080821115610445576104446103eb565b5b92915050565b7f4e487b71000000000000000000000000000000000000000000000000000000005f52603260045260245ffd5b5f6104828261020b565b91507fffffffffffffffffffffffffffffffffffffffffffffffffffffffffffffffff82036104b4576104b36103eb565b5b60018201905091905056fea26469706673582212206e637c4129772f3294c8279608f881b8b68926fe5a09ed522103b6200ac0b11864736f6c63430008140033","linkReferences":{}},"methodIdentifiers":{"twoSum(uint256[],uint256)":"6d27dcad"},"id":1}